:1000000000308A00942D00000A108A100A1182071D
:1000100028340C34013406340A108A100A1182077D
:100020000C3400340A108A100A1182073A34003462
:100030000A108A100A1182070C3454344F344D349C
:1000400020344F344B342E3400340A108A100A11F5
:1000500082070C3454344F344D34203447346534E3
:10006000633465347234733469347A34213400343F
:100070000A108A100A1182070C34483441345A3469
:10008000493452342E3400340A108A100A1182077F
:100090000C344D3461347334743465347234203428
:1000A00054346F346D3420344B34613479346434D7
:1000B00069340A3454346F346D3427347534203441
:1000C00064346F346B3475346E3464347534723424
:1000D00075346E3400340A108A100A1182070C3409
:1000E00044346F346734723475346C3461346D3435
:1000F000613420346934633469346E340A347434BE
:1001000065346B34723461347234203464346F3447
:100110006B3475346E3464347534723400340A10C0
:100120008A100A1182070C344B34613479346934F3
:10013000743420344F346E34613479346C34613427
:100140006E346434693400340A108A100A1182074C
:100150000C344F346E34613479346C3461346E3421
:100160006D3461346434693400340A108A100A1121
:1001700082070C344D346134733474346534723412
:1001800020347934653474346B3469346C346934B4
:100190000A343C342D34493473346C3465346D3452
:1001A0002034203420344B346134703469342D349D
:1001B0003E3400340A108A100A1182070C34493484
:1001C00073346C3465346D342034533465346334A3
:1001D00069346E3469347A340A343C342D3445340D
:1001E0006B346C3465342034203420342034203493
:1001F000533469346C342D343E3400340A148A107C
:100200000A11820742346F34733420345934653410
:100210007234203459346F346B34213400340A146E
:100220008A100A1182070C34593465346E346934EB
:10023000203454344F344D34273475340A34643404
:100240006F346B3475346E34643475347234753491
:100250006E3400340A148A100A1182070C345A349E
:100260006134743465346E3420344B346134793401
:10027000693474346C3469342E3400340A148A10AE
:100280000A1182070C344B34613479346434653498
:10029000643469346C34643469342E3400340A14A0
:1002A0008A100A1182070A343C342D3453346F34D7
:1002B0006E34723461346B346934203420345334F6
:1002C00069346C342D343E3400340A148A100A1117
:1002D00082070C3425345834203445346D34693465
:1002E0006E3420346D346934733469346E34693457
:1002F0007A343F340A343C342D3445347634653412
:100300007434483461347934693472342D343E3471
:1003100000340A148A100A1182070C3453346934E9
:100320006C3469346E34643469342E3400344430AF
:10033000840000080319AB290130F800F701F70B1E
:100340009F29F80B9E294A30F700F70BA5290000DA
:100350000000800B9C290034460EF039F7000F3066
:100360000605770486000000061400000000061051
:1003700000348610F03066000615000006140000F8
:100380000608060E0F39C60006100000061400000D
:100390000608060E0F39C500061000306600460E2E
:1003A000F700F030F70577084504F8007808C50035
:1003B000C51BBA29431C8610431886140000061179
:1003C00000000610440EC5000F30C5054508C600E4
:1003D000AC2144080F39C500C600AC210034003000
:1003E00066008610061106100F30C40097210130F8
:1003F000B9003908033C031C052A0330C600AC21B0
:100400000530C4009721B90AF9290230C600AC2191
:10041000B9013908033C031C162A39080420BA0024
:10042000C3013A08C400B921B90A092AC42D3E08FB
:100430000C3A0319222A063A03192A2A023A031906
:10044000402A452AC3010130C400B9210230C4004A
:1004500097214B2A0130BF000230C000400B312AE7
:10046000342A4030C100352AC10101303F02C107A2
:1004700041088038C200C3014208C400B9214B2A98
:10048000C3011030C400B9214B2A0130C3003E081B
:10049000C400B9214B2A0034BA010830BC00B901AC
:1004A00039080F3C031CE22A3A0883169B009C1370
:1004B0001C141A0803195E2A00305F2A01308312C7
:1004C000BD0001303A07BE0083169B009C131C142C
:1004D0001A0803196D2A00306E2A013083123D0478
:1004E000BF0002303A07C00083169B009C131C1407
:1004F0001A0803197D2A00307E2A013083123F0436
:10050000C10003303A07C20083169B009C131C14E1
:100510001A0803198D2A00308E2A013083124104F3
:10052000C30004303A07C40083169B009C131C14BC
:100530001A0803199D2A00309E2A013083124304B1
:10054000C50005303A07C60083169B009C131C1497
:100550001A080319AD2A0030AE2A0130831245046F
:10056000C70006303A07C80083169B009C131C1472
:100570001A080319BD2A0030BE2A0130831247042D
:10058000C90007303A07CA0083169B009C131C144D
:100590001A080319CD2A0030CE2A013083124904EB
:1005A000BB00BB08031DDE2ABA08031DDB2A093085
:1005B000BC00E22ADE2A3908BC00E22A0830BA0769
:1005C000B90A502A3C08F8000034831686118312B9
:1005D0008611A630F700F70BEB2A0000831686156C
:1005E000000000000000000000008615831286193C
:1005F000FC2A0030F800182B1530F700F70BFE2A04
:100600000000831686158312861D082B4310092BC4
:1006100043144F30F700F70B0B2B00000000431C76
:10062000152B0130F800182B182B0030F800182B70
:100630000034E522F8080319192BC830C4009721AB
:10064000E522F8080319DE2B3330C3000130C40063
:100650004408083C031C632B831686118312861101
:100660000330F700F70B322B0310C30C031C462B8F
:1006700083168611831286150330F700F70B3E2B85
:100680008619452B0030F800652B532B83168611F5
:10069000831286110330F700F70B4C2B861D532B6A
:1006A0000030F800652B1030F700F70B552B0000D9
:1006B00083168611831286151030F700F70B5E2B18
:1006C0000000C40A282B0130F800C2014208073C90
:1006D000031C992B39084207C3000130C4004408A9
:1006E000083C031C912B831686118312861104305B
:1006F000F700F70B792B0000831686150000000029
:10070000000000000000861583128619892B031053
:100710008A2B0314C50C2130F700F70B8D2BC40A6C
:100720006F2B4508F8004308840078088000C20A4F
:10073000662B0430C300FA30C4009721C30B9B2BF7
:10074000390884000008C30001303907840000081C
:100750004305C40002303907840000084405C50081
:1007600003303907840000084505C6000430390706
:10077000840000084605C7000530390784000008DA
:100780004705C80006303907840000084805C9003D
:1007900007303907840000084905C10006303907D1
:1007A000840080010030003A0319D82BFF30C100CB
:1007B0003908F800DE2B4108F800DE2B0034083041
:1007C000C300C3080319072C3A08BA0AC400013051
:1007D00043023B0784000008C600440883169B00C0
:1007E0008312460883169A001C1583120B08F70023
:1007F0008B13831655309D00AA309D009C149C18C5
:10080000FF2B1C11770883128B04C303E12B0034E8
:10081000C501C601C30143080F3C031CCA2C45088F
:1008200083169B009C131C141A088312C700073000
:100830003B078400000847020319202C0030212CBC
:100840000130C80001304507C90083169B009C1386
:100850001C141A088312CA0006303B0784000008E3
:100860004A020319352C0030362C01304805CB00E4
:1008700002304507CC0083169B009C131C141A08F9
:100880008312CD0005303B07840000084D02031998
:100890004B2C00304C2C01304B05CE00033045076B
:1008A000CF0083169B009C131C141A088312D000DF
:1008B00004303B078400000850020319612C00300B
:1008C000622C01304E05D10004304507D20083165A
:1008D0009B009C131C141A088312D30003303B079F
:1008E0008400000853020319772C0030782C013063
:1008F0005105D40005304507D50083169B009C1395
:100900001C141A088312D60002303B07840000082A
:10091000560203198D2C00308E2C01305405D7005F
:1009200006304507D80083169B009C131C141A0838
:100930008312D90001303B078400000859020319D3
:10094000A32C0030A42C01305705DA0007304507EE
:10095000DB0083169B009C131C141A088312DC0016
:100960003B08840000085C020319B82C0030B92C45
:1009700001305A050319C62CC508031DC32C0230CB
:10098000C600CA2CC62C0130C600CA2C0830C507C8
:10099000C30A0B2C4608F8000034BA01B901390823
:1009A0004F3C031C012D6430C400972183160514AD
:1009B0008312BB010518BB0A831685148312BC0180
:1009C0008518BC0A3B083C040319FF2CBB0803191B
:1009D000F22C8316051483120518F12C0130BA008D
:1009E000F22CE92CBC080319FE2C83168514831203
:1009F0008518FD2C0230BA00FE2CF52C012DB90A09
:100A0000CF2C3A08F8000034BD1B162D0F30F7002C
:100A10003C0EF7050A3077020318112D3030F70726
:100A2000132D3D08F7077708BE0017220F30BC05CD
:100A30000A303C0203181E2D3030202DBD133D0816
:100A4000BC073C08BE0017220034BC013C080C2047
:100A5000003803192F2DBC0ABE001722262D390895
:100A6000BC003730BD000425BC013C081220003812
:100A700003193E2DBC0ABE001722352D0330BA00E3
:100A80003A08063C031C5B2D390DF700F70DF70DF6
:100A9000F830F70577083A07BD0083169B009C13D2
:100AA0001C141A088312BB003B08BC003730BD0081
:100AB0000425BA0A402D382FB9013908182000380A
:100AC0000319662DB90ABE0017225D2D8515831600
:100AD000851104308312B900FA30C4009721B90B94
:100AE0006C2D8511831685118A018312002800342C
:100AF000B9013908252000380319822DB90ABE0032
:100B00001722792D05158316051104308312B900BB
:100B1000FA30C4009721B90B882D051183160511F1
:100B20008A0183120028E82F84011F3083050730D3
:100B30009F00FF30A000A100A200A300A400A50018
:100B4000A600A700831681130108C0398100831213
:100B500090010030F8009200003083169200861554
:100B600083129701970107309F0083160508033011
:100B7000F700F70BB92D83121F080C1383169F0182
:100B8000083066008312EF29B9013908382000388F
:100B90000319CE2DB90ABE001722C52DB7014C226C
:100BA0007808093C031DE02DB901390844200038BC
:100BB0000319DE2DB90ABE001722D52D0130B7006A
:100BC0002830B9003508C1001923350FE82DE82F6A
:100BD000B7080319612EBA012830BB00DF23B90121
:100BE00039086B2000380319F92DB90ABE00172205
:100BF000F02D2830B9003508C1001923B0013008A4
:100C00004F3C031C5F2E6430C4009721350F092E22
:100C10005D2E2830BB0008247808B3003308023C5E
:100C2000031D2A2EB90139088F20003803191C2E04
:100C3000B90ABE001722132EB701B0013008093CD3
:100C4000031C272E6430C4009721B00A1E2E8A018F
:100C500000285D2EB9013908A42000380319342E6C
:100C6000B90ABE0017222B2EB0013008073C031C26
:100C7000512E300883169B00FF309A001C158312FA
:100C80000B08F7008B13831655309D00AA309D008A
:100C90009C149C18492E1C11770883128B04B00AEF
:100CA000352EB0013008093C031C5B2E6430C400B3
:100CB0009721B00A522E8A010028B00AFF2D8A011E
:100CC00000282830BB000824780B672E692E0030DE
:100CD0006A2E0130BA002830BB0008247808023C94
:100CE0000319742E0030752E01303A040319E72FD2
:100CF0002830BB0008247808023C031DE52FB90109
:100D00003908B52000380319892EB90ABE00172208
:100D1000802ECD247808B10031080319962E013AAF
:100D20000319992E033A0319E22FE42F8A010028B0
:100D3000E42FB9013908DA2000380319A32EB90AC3
:100D4000BE0017229A2ECD247808B200320803196B
:100D5000B02E013A0319B32E033A0319342FE12FB1
:100D60008A010028E12F4C227808B8003808083C96
:100D7000031DCD2EB9013908FE2000380319C42EF9
:100D8000B90ABE001722BB2E0430B900FA30C400E5
:100D90009721B90BC62E8A0100283808093C031D8B
:100DA000D32E8A010028B90139080F210038031910
:100DB000DD2EB90ABE001722D42EB00130084F3CF8
:100DC000031C332F6430C40097212830B900350844
:100DD000C1001923350FED2E312F2830BB00082418
:100DE000F80803190D2FB90139082A210038031911
:100DF000FD2EB90ABE001722F42EB0013008013CC6
:100E0000031C0B2F0430B900FA30C4009721B90B32
:100E1000042FB00AFE2ED32E312F380DB900B90D94
:100E2000B90DF830B9053908BA002830BB00DF2306
:100E3000B90139083E2100380319222FB90ABE0032
:100E40001722192FB0013008013C031C302F043049
:100E5000B900FA30C4009721B90B292FB00A232F0B
:100E6000992EB00ADE2EE12FB3013308B900252DEB
:100E7000B90139084F2100380319422FB90ABE00C1
:100E80001722392FB00130084F3C031CDE2F64308D
:100E9000C4009721831605148312051C692FB40121
:100EA00034084F3C031C5E2F6430C4009721831626
:100EB00005148312051C602FB40A502F8A010028E4
:100EC00033080F3C031D662FB301682F0130B307B1
:100ED000352F831685148312851CDC2FB40134084A
:100EE0004F3C031CDC2F6430C4009721831685140B
:100EF00083128518DA2F0C30BE0017223308BC008D
:100F00003730BD0004250330B90039086521B90A1E
:100F1000F700BE00172218303902031D852F033059
:100F2000BA002030BE001722BA0B912F1830BB0038
:100F30003B086521BB0AF700BE0017221F303B02A9
:100F4000031D982FCD247808B2003208013A031906
:100F5000AD2F033A0319D12FD32F330DB900B90D9B
:100F6000B90DF830B9053908BA002030BB00DF23CD
:100F7000B9013908892100380319C22FB90ABE0006
:100F80001722B92F0430B900FA30C4009721B90BE9
:100F9000C42FB308031DCF2F8A010028D02F992E0C
:100FA000D32F352FD32F0430B900FA30C400972146
:100FB000B90BD52FB40A6F2FB00A432F8A0100282E
:100FC000E12FE42F5C25E42FE62F5C25E82F782D18
:040FD000E02D6300AD
:02400E00783FF9
:00000001FF
;PIC16F628
